:100000000C9434000C9451000C9451000C94510049
:100010000C9451000C9451000C9451000C9451001C
:100020000C9451000C9451000C9451000C9451000C
:100030000C9451000C9451000C9451000C945100FC
:100040000C9451000C9451000C94D7000C94510066
:100050000C9451000C9451000C9451000C945100DC
:100060000C9451000C94510011241FBECFEFD8E026
:10007000DEBFCDBF11E0A0E0B1E0ECE9F5E002C0E9
:1000800005900D92A830B107D9F721E0A8E0B1E0C2
:1000900001C01D92A930B207E1F70E9453000C94F1
:1000A000CC020C940000CF93DF93CDB7DEB72E9730
:1000B0000FB6F894DEBF0FBECDBF0E940501789445
:1000C000809108010E944B0180E090E0AAE7B4E42F
:1000D00089839A83AB83BC8320E030E04AE755E410
:1000E00069817A818B819C810E942E02DC01CB0187
:1000F0008D839E83AF83B88720E030E040E85FE3E4
:100100006D817E818F8198850E94A80188232CF4BF
:1001100081E090E09A8789873FC020E03FEF4FE77A
:1001200057E46D817E818F8198850E94290218167F
:100130004CF520E030E040E251E469817A818B8126
:100140009C810E942E02DC01CB01BC01CD010E94EA
:10015000AD01DC01CB019A8789870FC080E991E06E
:100160009C878B878B859C850197F1F79C878B8774
:1001700089859A8501979A87898789859A85892BA8
:1001800069F714C06D817E818F8198850E94AD01D1
:10019000DC01CB019A87898789859A859E878D871F
:1001A0008D859E850197F1F79E878D8789CF1F9258
:1001B0000F9200905F000F9211242F933F934F9363
:1001C0005F936F937F938F939F93AF93BF93EF93BF
:1001D000FF93CF93DF93CDB7DEB70E949601809354
:1001E0000801DF91CF91FF91EF91BF91AF919F9166
:1001F0008F917F916F915F914F913F912F910F90D0
:1002000000925F000F901F901895CF93DF93CDB7AA
:10021000DEB785EC90E0FC01108284EC90E027E6EC
:10022000FC01208381EC90E021EC30E0F901208199
:100230002860FC01208381EC90E021EC30E0F901A2
:1002400020812061FC01208381EC90E021EC30E0F2
:10025000F90120812068FC01208382EC90E022ECEF
:1002600030E0F90120812860FC01208382EC90E0DD
:1002700022EC30E0F90120812260FC01208382EC35
:1002800090E022EC30E0F90120812460FC01208321
:10029000DF91CF910895CF93DF931F92CDB7DEB753
:1002A0008983000080EC90E0FC018081882F90E041
:1002B00080729927892BB1F386EC90E02981FC01AB
:1002C00020830F90DF91CF910895CF93DF9300D0DB
:1002D00000D000D0CDB7DEB79E838D838D819E8107
:1002E0000E94C3029C838B831A8219820FC089816A
:1002F0009A812D813E81820F931FFC0180810E9493
:100300004B0189819A8101969A83898329813A8157
:100310008B819C812817390754F326960FB6F894E1
:10032000DEBF0FBECDBFDF91CF910895CF93DF9396
:10033000CDB7DEB7000080EC90E0FC01808188231F
:10034000D4F786EC90E0FC018081DF91CF91089595
:100350000E94DC0108F481E008950E94080288F000
:100360009F5798F0B92F9927B751B0F0E1F0660F79
:10037000771F881F991F1AF0BA95C9F714C0B130BA
:1003800091F00E942202B1E008950C942202672F9E
:10039000782F8827B85F39F0B93FCCF386957795E9
:1003A0006795B395D9F73EF49095809570956195D2
:1003B0007F4F8F4F9F4F0895990F0008550FAA0B3D
:1003C000E0E8FEEF16161706E807F907C0F0121668
:1003D0001306E407F50798F0621B730B840B950B6B
:1003E00039F40A2661F0232B242B252B21F40895C0
:1003F0000A2609F4A140A6958FEF811D811D08955D
:1004000057FD9058440F551F59F05F3F71F04795C5
:10041000880F97FB991F61F09F3F79F087950895AA
:10042000121613061406551FF2CF4695F1DF08C0C9
:10043000161617061806991FF1CF869571056105E6
:1004400008940895E894BB2766277727CB0197F98E
:1004500008950E94DC0108F48FEF08950E94410284
:100460000C94B2020E94A40238F00E94AB0220F069
:10047000952311F00C949B020C94A10211240C946E
:1004800023020E94000270F3959FC1F3950F50E084
:10049000551F629FF001729FBB27F00DB11D639F36
:1004A000AA27F00DB11DAA1F649F6627B00DA11DDC
:1004B000661F829F2227B00DA11D621F739FB00D82
:1004C000A11D621F839FA00D611D221F749F3327F2
:1004D000A00D611D231F849F600D211D822F762F8B
:1004E0006A2F11249F5750409AF0F1F088234AF068
:1004F000EE0FFF1FBB1F661F771F881F91505040D4
:10050000A9F79E3F510580F00C949B020C942302A6
:100510005F3FE4F3983ED4F3869577956795B7955A
:10052000F795E7959F5FC1F7FE2B880F911D969574
:10053000879597F9089597F99F6780E870E060E0E4
:1005400008959FEF80EC089500240A94161617066C
:1005500018060906089500240A94121613061406B4
:1005600005060895092E0394000C11F4882352F017
:10057000BB0F40F4BF2B11F460FF04C06F5F7F4FCF
:100580008F4F9F4F0895FC0101900020E9F780955F
:0C05900090958E0F9F1F0895F894FFCFE8
:08059C00020168656C6C6F0040
:00000001FF
